{"abi":[{"type":"constructor","inputs":[{"name":"_collateralTokenAddress","type":"address","internalType":"address"},{"name":"_loanTokenAddress","type":"address","internalType":"address"},{"name":"_collateralFactor","type":"uint256","internalType":"uint256"},{"name":"_interestRate","type":"uint256","internalType":"uint256"}],"stateMutability":"nonpayable"},{"type":"function","name":"borrow","inputs":[{"name":"_amount","type":"uint256","internalType":"uint256"}],"outputs":[],"stateMutability":"nonpayable"},{"type":"function","name":"calculateInterest","inputs":[{"name":"_principal","type":"uint256","internalType":"uint256"},{"name":"_startTime","type":"uint256","internalType":"uint256"}],"outputs":[{"name":"","type":"uint256","internalType":"uint256"}],"stateMutability":"view"},{"type":"function","name":"calculateRequiredCollateral","inputs":[{"name":"_borrowAmount","type":"uint256","internalType":"uint256"}],"outputs":[{"name":"","type":"uint256","internalType":"uint256"}],"stateMutability":"view"},{"type":"function","name":"collateralBalances","inputs":[{"name":"","type":"address","internalType":"address"}],"outputs":[{"name":"","type":"uint256","internalType":"uint256"}],"stateMutability":"view"},{"type":"function","name":"collateralFactor","inputs":[],"outputs":[{"name":"","type":"uint256","internalType":"uint256"}],"stateMutability":"view"},{"type":"function","name":"collateralToken","inputs":[],"outputs":[{"name":"","type":"address","internalType":"contract IERC20"}],"stateMutability":"view"},{"type":"function","name":"depositCollateral","inputs":[{"name":"_amount","type":"uint256","internalType":"uint256"}],"outputs":[],"stateMutability":"nonpayable"},{"type":"function","name":"getMaximumBorrowAmount","inputs":[{"name":"_user","type":"address","internalType":"address"}],"outputs":[{"name":"","type":"uint256","internalType":"uint256"}],"stateMutability":"view"},{"type":"function","name":"interestRate","inputs":[],"outputs":[{"name":"","type":"uint256","internalType":"uint256"}],"stateMutability":"view"},{"type":"function","name":"isUndercollateralized","inputs":[{"name":"_user","type":"address","internalType":"address"}],"outputs":[{"name":"","type":"bool","internalType":"bool"}],"stateMutability":"view"},{"type":"function","name":"liquidate","inputs":[{"name":"_borrower","type":"address","internalType":"address"}],"outputs":[],"stateMutability":"nonpayable"},{"type":"function","name":"loanToken","inputs":[],"outputs":[{"name":"","type":"address","internalType":"contract IERC20"}],"stateMutability":"view"},{"type":"function","name":"loans","inputs":[{"name":"","type":"address","internalType":"address"}],"outputs":[{"name":"amount","type":"uint256","internalType":"uint256"},{"name":"collateral","type":"uint256","internalType":"uint256"},{"name":"startTime","type":"uint256","internalType":"uint256"},{"name":"active","type":"bool","internalType":"bool"}],"stateMutability":"view"},{"type":"function","name":"owner","inputs":[],"outputs":[{"name":"","type":"address","internalType":"address"}],"stateMutability":"view"},{"type":"function","name":"renounceOwnership","inputs":[],"outputs":[],"stateMutability":"nonpayable"},{"type":"function","name":"repay","inputs":[],"outputs":[],"stateMutability":"nonpayable"},{"type":"function","name":"transferOwnership","inputs":[{"name":"newOwner","type":"address","internalType":"address"}],"outputs":[],"stateMutability":"nonpayable"},{"type":"function","name":"withdrawCollateral","inputs":[{"name":"_amount","type":"uint256","internalType":"uint256"}],"outputs":[],"stateMutability":"nonpayable"},{"type":"event","name":"CollateralDeposited","inputs":[{"name":"user","type":"address","indexed":true,"internalType":"address"},{"name":"amount","type":"uint256","indexed":false,"internalType":"uint256"}],"anonymous":false},{"type":"event","name":"CollateralWithdrawn","inputs":[{"name":"user","type":"address","indexed":true,"internalType":"address"},{"name":"amount","type":"uint256","indexed":false,"internalType":"uint256"}],"anonymous":false},{"type":"event","name":"Liquidated","inputs":[{"name":"borrower","type":"address","indexed":true,"internalType":"address"},{"name":"liquidator","type":"address","indexed":true,"internalType":"address"},{"name":"collateralPaid","type":"uint256","indexed":false,"internalType":"uint256"},{"name":"collateralReceived","type":"uint256","indexed":false,"internalType":"uint256"}],"anonymous":false},{"type":"event","name":"LoanRepaid","inputs":[{"name":"user","type":"address","indexed":true,"internalType":"address"},{"name":"principal","type":"uint256","indexed":false,"internalType":"uint256"},{"name":"interest","type":"uint256","indexed":false,"internalType":"uint256"}],"anonymous":false},{"type":"event","name":"LoanTaken","inputs":[{"name":"user","type":"address","indexed":true,"internalType":"address"},{"name":"amount","type":"uint256","indexed":false,"internalType":"uint256"},{"name":"collateralAmount","type":"uint256","indexed":false,"internalType":"uint256"}],"anonymous":false},{"type":"event","name":"OwnershipTransferred","inputs":[{"name":"previousOwner","type":"address","indexed":true,"internalType":"address"},{"name":"newOwner","type":"address","indexed":true,"internalType":"address"}],"anonymous":false},{"type":"error","name":"OwnableInvalidOwner","inputs":[{"name":"owner","type":"address","internalType":"address"}]},{"type":"error","name":"OwnableUnauthorizedAccount","inputs":[{"name":"account","type":"address","internalType":"address"}]},{"type":"error","name":"SafeERC20FailedOperation","inputs":[{"name":"token","type":"address","internalType":"address"}]}],"bytecode":{"object":"0x608060405234801561000f575f5ffd5b506040516121963803806121968339818101604052810190610031919061029b565b335f73ffffffffffffffffffffffffffffffffffffffff168173ffffffffffffffffffffffffffffffffffffffff16036100a2575f6040517f1e4fbdf7000000000000000000000000000000000000000000000000000000008152600401610099919061030e565b60405180910390fd5b6100b18161014960201b60201c565b508360015f6101000a81548173ffffffffffffffffffffffffffffffffffffffff021916908373ffffffffffffffffffffffffffffffffffffffff1602179055508260025f6101000a81548173ffffffffffffffffffffffffffffffffffffffff021916908373ffffffffffffffffffffffffffffffffffffffff160217905550816003819055508060048190555050505050610327565b5f5f5f9054906101000a900473ffffffffffffffffffffffffffffffffffffffff169050815f5f6101000a81548173ffffffffffffffffffffffffffffffffffffffff021916908373ffffffffffffffffffffffffffffffffffffffff1602179055508173ffffffffffffffffffffffffffffffffffffffff168173ffffffffffffffffffffffffffffffffffffffff167f8be0079c531659141344cd1fd0a4f28419497f9722a3daafe3b4186f6b6457e060405160405180910390a35050565b5f5ffd5b5f73ffffffffffffffffffffffffffffffffffffffff82169050919050565b5f6102378261020e565b9050919050565b6102478161022d565b8114610251575f5ffd5b50565b5f815190506102628161023e565b92915050565b5f819050919050565b61027a81610268565b8114610284575f5ffd5b50565b5f8151905061029581610271565b92915050565b5f5f5f5f608085870312156102b3576102b261020a565b5b5f6102c087828801610254565b94505060206102d187828801610254565b93505060406102e287828801610287565b92505060606102f387828801610287565b91505092959194509250565b6103088161022d565b82525050565b5f6020820190506103215f8301846102ff565b92915050565b611e62806103345f395ff3fe608060405234801561000f575f5ffd5b5060043610610114575f3560e01c806373b4086b116100a0578063bad4a01f1161006f578063bad4a01f146102cf578063c5ebeaec146102eb578063df011c4114610307578063efdd7c0714610325578063f2fde38b1461035557610114565b806373b4086b146102425780637c3a00fd146102755780638da5cb5b14610293578063b2016bd4146102b157610114565b8063402d8883116100e7578063402d8883146101b25780634cadf2dd146101bc5780636112fe2e146101ec57806368f88c4b14610208578063715018a61461023857610114565b806306d378171461011857806329bc969d146101365780632f8655681461016657806334931b4b14610182575b5f5ffd5b610120610371565b60405161012d919061169c565b60405180910390f35b610150600480360381019061014b91906116f4565b610396565b60405161015d9190611737565b60405180910390f35b610180600480360381019061017b91906116f4565b6103ab565b005b61019c6004803603810190610197919061177a565b61061f565b6040516101a99190611737565b60405180910390f35b6101ba61066b565b005b6101d660048036038101906101d191906116f4565b610885565b6040516101e391906117bf565b60405180910390f35b6102066004803603810190610201919061177a565b6109a1565b005b610222600480360381019061021d91906116f4565b610be0565b60405161022f9190611737565b60405180910390f35b610240610c69565b005b61025c600480360381019061025791906116f4565b610c7c565b60405161026c94939291906117d8565b60405180910390f35b61027d610cb4565b60405161028a9190611737565b60405180910390f35b61029b610cba565b6040516102a8919061182a565b60405180910390f35b6102b9610ce1565b6040516102c6919061169c565b60405180910390f35b6102e960048036038101906102e4919061177a565b610d06565b005b6103056004803603810190610300919061177a565b610e3a565b005b61030f611251565b60405161031c9190611737565b60405180910390f35b61033f600480360381019061033a9190611843565b611257565b60405161034c9190611737565b60405180910390f35b61036f600480360381019061036a91906116f4565b6112a4565b005b60025f9054906101000a900473ffffffffffffffffffffffffffffffffffffffff1681565b6005602052805f5260405f205f915090505481565b5f60065f8373ffffffffffffffffffffffffffffffffffffffff1673ffffffffffffffffffffffffffffffffffffffff1681526020019081526020015f209050806003015f9054906101000a900460ff1661043b576040517f08c379a0000000000000000000000000000000000000000000000000000000008152600401610432906118db565b60405180910390fd5b61044482610885565b610483576040517f08c379a000000000000000000000000000000000000000000000000000000000815260040161047a90611943565b60405180910390fd5b5f610495825f01548360020154611257565b90505f81835f01546104a7919061198e565b90506104f733308360025f9054906101000a900473ffffffffffffffffffffffffffffffffffffffff1673ffffffffffffffffffffffffffffffffffffffff16611328909392919063ffffffff16565b61054733846001015460015f9054906101000a900473ffffffffffffffffffffffffffffffffffffffff1673ffffffffffffffffffffffffffffffffffffffff166113aa9092919063ffffffff16565b60065f8573ffffffffffffffffffffffffffffffffffffffff1673ffffffffffffffffffffffffffffffffffffffff1681526020019081526020015f205f5f82015f9055600182015f9055600282015f9055600382015f6101000a81549060ff021916905550503373ffffffffffffffffffffffffffffffffffffffff168473ffffffffffffffffffffffffffffffffffffffff167f1f0c6615429d1cdae0dfa233abf91d3b31cdbdd82c8081389832a61e1072f1ea8386600101546040516106119291906119c1565b60405180910390a350505050565b5f5f670de0b6b3a7640000610632611429565b8461063d91906119e8565b6106479190611a56565b905060035460648261065991906119e8565b6106639190611a56565b915050919050565b5f60065f3373ffffffffffffffffffffffffffffffffffffffff1673ffffffffffffffffffffffffffffffffffffffff1681526020019081526020015f209050806003015f9054906101000a900460ff166106fb576040517f08c379a00000000000000000000000000000000000000000000000000000000081526004016106f2906118db565b60405180910390fd5b5f61070d825f01548360020154611257565b90505f81835f015461071f919061198e565b905061076f33308360025f9054906101000a900473ffffffffffffffffffffffffffffffffffffffff1673ffffffffffffffffffffffffffffffffffffffff16611328909392919063ffffffff16565b826001015460055f3373ffffffffffffffffffffffffffffffffffffffff1673ffffffffffffffffffffffffffffffffffffffff1681526020019081526020015f205f8282546107bf919061198e565b9250508190555060065f3373ffffffffffffffffffffffffffffffffffffffff1673ffffffffffffffffffffffffffffffffffffffff1681526020019081526020015f205f5f82015f9055600182015f9055600282015f9055600382015f6101000a81549060ff021916905550503373ffffffffffffffffffffffffffffffffffffffff167fc7ce0a35f17b490de2a317e7fecb2cae86b1abffb03800b2f492823521382698845f0154846040516108789291906119c1565b60405180910390a2505050565b5f5f60065f8473ffffffffffffffffffffffffffffffffffffffff1673ffffffffffffffffffffffffffffffffffffffff1681526020019081526020015f206040518060800160405290815f82015481526020016001820154815260200160028201548152602001600382015f9054906101000a900460ff1615151515815250509050806060015161091a575f91505061099c565b5f61092c825f01518360400151611257565b90505f670de0b6b3a7640000610940611429565b83855f015161094f919061198e565b61095991906119e8565b6109639190611a56565b90505f670de0b6b3a7640000610977611429565b856020015161098691906119e8565b6109909190611a56565b90508181109450505050505b919050565b5f81116109e3576040517f08c379a00000000000000000000000000000000000000000000000000000000081526004016109da90611ad0565b60405180910390fd5b8060055f3373ffffffffffffffffffffffffffffffffffffffff1673ffffffffffffffffffffffffffffffffffffffff1681526020019081526020015f20541015610a63576040517f08c379a0000000000000000000000000000000000000000000000000000000008152600401610a5a90611b38565b60405180910390fd5b60065f3373ffffffffffffffffffffffffffffffffffffffff1673ffffffffffffffffffffffffffffffffffffffff1681526020019081526020015f206003015f9054906101000a900460ff1615610af0576040517f08c379a0000000000000000000000000000000000000000000000000000000008152600401610ae790611ba0565b60405180910390fd5b8060055f3373ffffffffffffffffffffffffffffffffffffffff1673ffffffffffffffffffffffffffffffffffffffff1681526020019081526020015f205f828254610b3c9190611bbe565b92505081905550610b8f338260015f9054906101000a900473ffffffffffffffffffffffffffffffffffffffff1673ffffffffffffffffffffffffffffffffffffffff166113aa9092919063ffffffff16565b3373ffffffffffffffffffffffffffffffffffffffff167fc30fcfbcaac9e0deffa719714eaa82396ff506a0d0d0eebe170830177288715d82604051610bd59190611737565b60405180910390a250565b5f5f670de0b6b3a7640000610bf3611429565b60055f8673ffffffffffffffffffffffffffffffffffffffff1673ffffffffffffffffffffffffffffffffffffffff1681526020019081526020015f2054610c3b91906119e8565b610c459190611a56565b9050606460035482610c5791906119e8565b610c619190611a56565b915050919050565b610c71611438565b610c7a5f6114bf565b565b6006602052805f5260405f205f91509050805f015490806001015490806002015490806003015f9054906101000a900460ff16905084565b60045481565b5f5f5f9054906101000a900473ffffffffffffffffffffffffffffffffffffffff16905090565b60015f9054906101000a900473ffffffffffffffffffffffffffffffffffffffff1681565b5f8111610d48576040517f08c379a0000000000000000000000000000000000000000000000000000000008152600401610d3f90611ad0565b60405180910390fd5b8060055f3373ffffffffffffffffffffffffffffffffffffffff1673ffffffffffffffffffffffffffffffffffffffff1681526020019081526020015f205f828254610d94919061198e565b92505081905550610de933308360015f9054906101000a900473ffffffffffffffffffffffffffffffffffffffff1673ffffffffffffffffffffffffffffffffffffffff16611328909392919063ffffffff16565b3373ffffffffffffffffffffffffffffffffffffffff167fd7243f6f8212d5188fd054141cf6ea89cfc0d91facb8c3afe2f88a135848014282604051610e2f9190611737565b60405180910390a250565b5f8111610e7c576040517f08c379a0000000000000000000000000000000000000000000000000000000008152600401610e7390611ad0565b60405180910390fd5b60065f3373ffffffffffffffffffffffffffffffffffffffff1673ffffffffffffffffffffffffffffffffffffffff1681526020019081526020015f206003015f9054906101000a900460ff1615610f09576040517f08c379a0000000000000000000000000000000000000000000000000000000008152600401610f0090611c3b565b60405180910390fd5b5f610f1333610be0565b905080821115610f58576040517f08c379a0000000000000000000000000000000000000000000000000000000008152600401610f4f90611ca3565b60405180910390fd5b8160025f9054906101000a900473ffffffffffffffffffffffffffffffffffffffff1673ffffffffffffffffffffffffffffffffffffffff166370a08231306040518263ffffffff1660e01b8152600401610fb3919061182a565b602060405180830381865afa158015610fce573d5f5f3e3d5ffd5b505050506040513d601f19601f82011682018060405250810190610ff29190611cd5565b1015611033576040517f08c379a000000000000000000000000000000000000000000000000000000000815260040161102a90611d4a565b60405180910390fd5b5f61103d8361061f565b90508060055f3373ffffffffffffffffffffffffffffffffffffffff1673ffffffffffffffffffffffffffffffffffffffff1681526020019081526020015f205410156110bf576040517f08c379a00000000000000000000000000000000000000000000000000000000081526004016110b690611db2565b60405180910390fd5b8060055f3373ffffffffffffffffffffffffffffffffffffffff1673ffffffffffffffffffffffffffffffffffffffff1681526020019081526020015f205f82825461110b9190611bbe565b9250508190555060405180608001604052808481526020018281526020014281526020016001151581525060065f3373ffffffffffffffffffffffffffffffffffffffff1673ffffffffffffffffffffffffffffffffffffffff1681526020019081526020015f205f820151815f015560208201518160010155604082015181600201556060820151816003015f6101000a81548160ff0219169083151502179055509050506111fd338460025f9054906101000a900473ffffffffffffffffffffffffffffffffffffffff1673ffffffffffffffffffffffffffffffffffffffff166113aa9092919063ffffffff16565b3373ffffffffffffffffffffffffffffffffffffffff167e6b9bb4766cf5ab74b890df959e4fad0e54b1c3885e49c9541d36253a6e39e684836040516112449291906119c1565b60405180910390a2505050565b60035481565b5f5f82426112659190611bbe565b905060646301e13380826004548761127d91906119e8565b61128791906119e8565b6112919190611a56565b61129b9190611a56565b91505092915050565b6112ac611438565b5f73ffffffffffffffffffffffffffffffffffffffff168173ffffffffffffffffffffffffffffffffffffffff160361131c575f6040517f1e4fbdf7000000000000000000000000000000000000000000000000000000008152600401611313919061182a565b60405180910390fd5b611325816114bf565b50565b6113a4848573ffffffffffffffffffffffffffffffffffffffff166323b872dd86868660405160240161135d93929190611dd0565b604051602081830303815290604052915060e01b6020820180517bffffffffffffffffffffffffffffffffffffffffffffffffffffffff8381831617835250505050611580565b50505050565b611424838473ffffffffffffffffffffffffffffffffffffffff1663a9059cbb85856040516024016113dd929190611e05565b604051602081830303815290604052915060e01b6020820180517bffffffffffffffffffffffffffffffffffffffffffffffffffffffff8381831617835250505050611580565b505050565b5f670de0b6b3a7640000905090565b61144061161b565b73ffffffffffffffffffffffffffffffffffffffff1661145e610cba565b73ffffffffffffffffffffffffffffffffffffffff16146114bd5761148161161b565b6040517f118cdaa70000000000000000000000000000000000000000000000000000000081526004016114b4919061182a565b60405180910390fd5b565b5f5f5f9054906101000a900473ffffffffffffffffffffffffffffffffffffffff169050815f5f6101000a81548173ffffffffffffffffffffffffffffffffffffffff021916908373ffffffffffffffffffffffffffffffffffffffff1602179055508173ffffffffffffffffffffffffffffffffffffffff168173ffffffffffffffffffffffffffffffffffffffff167f8be0079c531659141344cd1fd0a4f28419497f9722a3daafe3b4186f6b6457e060405160405180910390a35050565b5f5f60205f8451602086015f885af18061159f576040513d5f823e3d81fd5b3d92505f519150505f82146115b85760018114156115d3565b5f8473ffffffffffffffffffffffffffffffffffffffff163b145b1561161557836040517f5274afe700000000000000000000000000000000000000000000000000000000815260040161160c919061182a565b60405180910390fd5b50505050565b5f33905090565b5f73ffffffffffffffffffffffffffffffffffffffff82169050919050565b5f819050919050565b5f61166461165f61165a84611622565b611641565b611622565b9050919050565b5f6116758261164a565b9050919050565b5f6116868261166b565b9050919050565b6116968161167c565b82525050565b5f6020820190506116af5f83018461168d565b92915050565b5f5ffd5b5f6116c382611622565b9050919050565b6116d3816116b9565b81146116dd575f5ffd5b50565b5f813590506116ee816116ca565b92915050565b5f60208284031215611709576117086116b5565b5b5f611716848285016116e0565b91505092915050565b5f819050919050565b6117318161171f565b82525050565b5f60208201905061174a5f830184611728565b92915050565b6117598161171f565b8114611763575f5ffd5b50565b5f8135905061177481611750565b92915050565b5f6020828403121561178f5761178e6116b5565b5b5f61179c84828501611766565b91505092915050565b5f8115159050919050565b6117b9816117a5565b82525050565b5f6020820190506117d25f8301846117b0565b92915050565b5f6080820190506117eb5f830187611728565b6117f86020830186611728565b6118056040830185611728565b61181260608301846117b0565b95945050505050565b611824816116b9565b82525050565b5f60208201905061183d5f83018461181b565b92915050565b5f5f60408385031215611859576118586116b5565b5b5f61186685828601611766565b925050602061187785828601611766565b9150509250929050565b5f82825260208201905092915050565b7f4e6f20616374697665206c6f616e0000000000000000000000000000000000005f82015250565b5f6118c5600e83611881565b91506118d082611891565b602082019050919050565b5f6020820190508181035f8301526118f2816118b9565b9050919050565b7f4c6f616e206e6f7420756e646572636f6c6c61746572616c697a6564000000005f82015250565b5f61192d601c83611881565b9150611938826118f9565b602082019050919050565b5f6020820190508181035f83015261195a81611921565b9050919050565b7f4e487b71000000000000000000000000000000000000000000000000000000005f52601160045260245ffd5b5f6119988261171f565b91506119a38361171f565b92508282019050808211156119bb576119ba611961565b5b92915050565b5f6040820190506119d45f830185611728565b6119e16020830184611728565b9392505050565b5f6119f28261171f565b91506119fd8361171f565b9250828202611a0b8161171f565b91508282048414831517611a2257611a21611961565b5b5092915050565b7f4e487b71000000000000000000000000000000000000000000000000000000005f52601260045260245ffd5b5f611a608261171f565b9150611a6b8361171f565b925082611a7b57611a7a611a29565b5b828204905092915050565b7f416d6f756e74206d757374206265203e203000000000000000000000000000005f82015250565b5f611aba601283611881565b9150611ac582611a86565b602082019050919050565b5f6020820190508181035f830152611ae781611aae565b9050919050565b7f496e73756666696369656e7420636f6c6c61746572616c0000000000000000005f82015250565b5f611b22601783611881565b9150611b2d82611aee565b602082019050919050565b5f6020820190508181035f830152611b4f81611b16565b9050919050565b7f43616e6e6f74207769746864726177207769746820616374697665206c6f616e5f82015250565b5f611b8a602083611881565b9150611b9582611b56565b602082019050919050565b5f6020820190508181035f830152611bb781611b7e565b9050919050565b5f611bc88261171f565b9150611bd38361171f565b9250828203905081811115611beb57611bea611961565b5b92915050565b7f4c6f616e20616c726561647920616374697665000000000000000000000000005f82015250565b5f611c25601383611881565b9150611c3082611bf1565b602082019050919050565b5f6020820190508181035f830152611c5281611c19565b9050919050565b7f426f72726f7720616d6f756e742065786365656473206d6178696d756d0000005f82015250565b5f611c8d601d83611881565b9150611c9882611c59565b602082019050919050565b5f6020820190508181035f830152611cba81611c81565b9050919050565b5f81519050611ccf81611750565b92915050565b5f60208284031215611cea57611ce96116b5565b5b5f611cf784828501611cc1565b91505092915050565b7f4e6f7420656e6f756768206c69717569646974790000000000000000000000005f82015250565b5f611d34601483611881565b9150611d3f82611d00565b602082019050919050565b5f6020820190508181035f830152611d6181611d28565b9050919050565b7f4e6f7420656e6f75676820636f6c6c61746572616c00000000000000000000005f82015250565b5f611d9c601583611881565b9150611da782611d68565b602082019050919050565b5f6020820190508181035f830152611dc981611d90565b9050919050565b5f606082019050611de35f83018661181b565b611df0602083018561181b565b611dfd6040830184611728565b949350505050565b5f604082019050611e185f83018561181b565b611e256020830184611728565b939250505056fea2646970667358221220c50a5e26960844f9ccb843a7e22c5d065a273bb40dad086ec8d22a28cbc5f34064736f6c634300081e0033","linkReferences":{}},"methodIdentifiers":{"borrow(uint256)":"c5ebeaec","calculateInterest(uint256,uint256)":"efdd7c07","calculateRequiredCollateral(uint256)":"34931b4b","collateralBalances(address)":"29bc969d","collateralFactor()":"df011c41","collateralToken()":"b2016bd4","depositCollateral(uint256)":"bad4a01f","getMaximumBorrowAmount(address)":"68f88c4b","interestRate()":"7c3a00fd","isUndercollateralized(address)":"4cadf2dd","liquidate(address)":"2f865568","loanToken()":"06d37817","loans(address)":"73b4086b","owner()":"8da5cb5b","renounceOwnership()":"715018a6","repay()":"402d8883","transferOwnership(address)":"f2fde38b","withdrawCollateral(uint256)":"6112fe2e"},"id":1}